{
  "contractName": "Lottery",
  "abi": [
    {
      "constant": true,
      "inputs": [],
      "name": "name",
      "outputs": [
        {
          "internalType": "string",
          "name": "",
          "type": "string"
        }
      ],
      "payable": false,
      "stateMutability": "view",
      "type": "function"
    },
    {
      "constant": true,
      "inputs": [
        {
          "internalType": "uint256",
          "name": "",
          "type": "uint256"
        }
      ],
      "name": "players",
      "outputs": [
        {
          "internalType": "address payable",
          "name": "",
          "type": "address"
        }
      ],
      "payable": false,
      "stateMutability": "view",
      "type": "function"
    },
    {
      "constant": false,
      "inputs": [],
      "name": "enter",
      "outputs": [],
      "payable": true,
      "stateMutability": "payable",
      "type": "function"
    },
    {
      "constant": true,
      "inputs": [],
      "name": "random",
      "outputs": [
        {
          "internalType": "uint256",
          "name": "",
          "type": "uint256"
        }
      ],
      "payable": false,
      "stateMutability": "view",
      "type": "function"
    },
    {
      "constant": false,
      "inputs": [],
      "name": "pickWinner",
      "outputs": [],
      "payable": false,
      "stateMutability": "nonpayable",
      "type": "function"
    },
    {
      "constant": true,
      "inputs": [],
      "name": "getPlayers",
      "outputs": [
        {
          "internalType": "address payable[]",
          "name": "",
          "type": "address[]"
        }
      ],
      "payable": false,
      "stateMutability": "view",
      "type": "function"
    }
  ],
  "bytecode": "0x60806040526040518060400160405280600781526020017f4c6f7474657279000000000000000000000000000000000000000000000000008152506000908051906020019061004f929190610062565b5034801561005c57600080fd5b50610107565b828054600181600116156101000203166002900490600052602060002090601f016020900481019282601f106100a357805160ff19168380011785556100d1565b828001600101855582156100d1579182015b828111156100d05782518255916020019190600101906100b5565b5b5090506100de91906100e2565b5090565b61010491905b808211156101005760008160009055506001016100e8565b5090565b90565b61076c806101166000396000f3fe6080604052600436106100555760003560e01c806306fdde031461005a5780635d495aea146100ea5780635ec01e4d146101015780638b5b9ccc1461012c578063e97dcb6214610198578063f71d96cb146101a2575b600080fd5b34801561006657600080fd5b5061006f61021d565b6040518080602001828103825283818151815260200191508051906020019080838360005b838110156100af578082015181840152602081019050610094565b50505050905090810190601f1680156100dc5780820380516001836020036101000a031916815260200191505b509250505060405180910390f35b3480156100f657600080fd5b506100ff6102bb565b005b34801561010d57600080fd5b50610116610418565b6040518082815260200191505060405180910390f35b34801561013857600080fd5b506101416104ba565b6040518080602001828103825283818151815260200191508051906020019060200280838360005b83811015610184578082015181840152602081019050610169565b505050509050019250505060405180910390f35b6101a0610548565b005b3480156101ae57600080fd5b506101db600480360360208110156101c557600080fd5b810190808035906020019092919050505061062e565b604051808273ffffffffffffffffffffffffffffffffffffffff1673ffffffffffffffffffffffffffffffffffffffff16815260200191505060405180910390f35b60008054600181600116156101000203166002900480601f0160208091040260200160405190810160405280929190818152602001828054600181600116156101000203166002900480156102b35780601f10610288576101008083540402835291602001916102b3565b820191906000526020600020905b81548152906001019060200180831161029657829003601f168201915b505050505081565b600060018054905011610336576040517f08c379a00000000000000000000000000000000000000000000000000000000081526004018080602001828103825260198152602001807f4e656564206174206c65617374206f6e6520706c617965722e0000000000000081525060200191505060405180910390fd5b6000600180549050610346610418565b8161034d57fe5b0690506001818154811061035d57fe5b9060005260206000200160009054906101000a900473ffffffffffffffffffffffffffffffffffffffff1673ffffffffffffffffffffffffffffffffffffffff166108fc479081150290604051600060405180830381858888f193505050501580156103cd573d6000803e3d6000fd5b5060006040519080825280602002602001820160405280156103fe5781602001602082028038833980820191505090505b506001908051906020019061041492919061066a565b5050565b60004442600160405160200180848152602001838152602001828054801561049557602002820191906000526020600020905b8160009054906101000a900473ffffffffffffffffffffffffffffffffffffffff1673ffffffffffffffffffffffffffffffffffffffff168152602001906001019080831161044b575b505093505050506040516020818303038152906040528051906020012060001c905090565b6060600180548060200260200160405190810160405280929190818152602001828054801561053e57602002820191906000526020600020905b8160009054906101000a900473ffffffffffffffffffffffffffffffffffffffff1673ffffffffffffffffffffffffffffffffffffffff16815260200190600101908083116104f4575b5050505050905090565b670de0b6b3a76400003410156105c6576040517f08c379a00000000000000000000000000000000000000000000000000000000081526004018080602001828103825260178152602001807f4d696e69756d756e20616d6f756e74206e6f74206d657400000000000000000081525060200191505060405180910390fd5b60013390806001815401808255809150509060018203906000526020600020016000909192909190916101000a81548173ffffffffffffffffffffffffffffffffffffffff021916908373ffffffffffffffffffffffffffffffffffffffff16021790555050565b6001818154811061063b57fe5b906000526020600020016000915054906101000a900473ffffffffffffffffffffffffffffffffffffffff1681565b8280548282559060005260206000209081019282156106e3579160200282015b828111156106e25782518260006101000a81548173ffffffffffffffffffffffffffffffffffffffff021916908373ffffffffffffffffffffffffffffffffffffffff1602179055509160200191906001019061068a565b5b5090506106f091906106f4565b5090565b61073491905b8082111561073057600081816101000a81549073ffffffffffffffffffffffffffffffffffffffff0219169055506001016106fa565b5090565b9056fea265627a7a723158201a56d0682274f9cd154664d28fa746978697901c1c69deed73781e5678f7a5b064736f6c63430005100032",
  "source": "pragma solidity 0.5.16;\n\ncontract Lottery {\n    string public name = \"Lottery\";\n    address payable[] public players;\n\n    function enter() public payable {\n        require(msg.value >= 1 ether, \"Miniumun amount not met\");\n        players.push(msg.sender);\n    }\n\n    function random() public view returns (uint256) {\n        return\n            uint256(\n                keccak256(abi.encodePacked(block.difficulty, now, players))\n            );\n    }\n\n    function pickWinner() public {\n        require(players.length > 0, \"Need at least one player.\");\n        uint256 index = random() % players.length;\n        players[index].transfer(address(this).balance);\n        players = new address payable[](0);\n    }\n\n    function getPlayers() public view returns (address payable[] memory) {\n        return players;\n    }\n}\n",
  "sourcePath": "C:\\Users\\olivi\\Documents\\3IBCS1\\blockchain\\contracts\\Lottery.sol",
  "compiler": {
    "name": "solc",
    "version": "0.5.16+commit.9c3226ce.Emscripten.clang"
  },
  "schemaVersion": "3.4.3",
  "updatedAt": "2021-12-01T16:01:43.452Z",
  "networkType": "ethereum",
  "devdoc": {
    "methods": {}
  },
  "userdoc": {
    "methods": {}
  }
}