{
  "contractName": "SolidityExam",
  "abi": [
    {
      "constant": true,
      "inputs": [
        {
          "internalType": "address",
          "name": "",
          "type": "address"
        }
      ],
      "name": "balanceOf",
      "outputs": [
        {
          "internalType": "uint256",
          "name": "",
          "type": "uint256"
        }
      ],
      "payable": false,
      "stateMutability": "view",
      "type": "function"
    },
    {
      "constant": true,
      "inputs": [
        {
          "internalType": "uint256",
          "name": "",
          "type": "uint256"
        }
      ],
      "name": "clients",
      "outputs": [
        {
          "internalType": "address",
          "name": "",
          "type": "address"
        }
      ],
      "payable": false,
      "stateMutability": "view",
      "type": "function"
    },
    {
      "constant": true,
      "inputs": [],
      "name": "name",
      "outputs": [
        {
          "internalType": "string",
          "name": "",
          "type": "string"
        }
      ],
      "payable": false,
      "stateMutability": "view",
      "type": "function"
    },
    {
      "constant": false,
      "inputs": [],
      "name": "deposit",
      "outputs": [],
      "payable": true,
      "stateMutability": "payable",
      "type": "function"
    },
    {
      "constant": false,
      "inputs": [],
      "name": "withdraw",
      "outputs": [],
      "payable": false,
      "stateMutability": "nonpayable",
      "type": "function"
    },
    {
      "constant": true,
      "inputs": [],
      "name": "balance",
      "outputs": [
        {
          "internalType": "address[]",
          "name": "",
          "type": "address[]"
        }
      ],
      "payable": false,
      "stateMutability": "view",
      "type": "function"
    },
    {
      "constant": true,
      "inputs": [],
      "name": "bankBalance",
      "outputs": [
        {
          "internalType": "uint256",
          "name": "",
          "type": "uint256"
        }
      ],
      "payable": false,
      "stateMutability": "view",
      "type": "function"
    }
  ],
  "bytecode": "0x60806040526040518060400160405280600c81526020017f536f6c69646974794578616d00000000000000000000000000000000000000008152506000908051906020019061004f929190610067565b50600060025534801561006157600080fd5b5061010c565b828054600181600116156101000203166002900490600052602060002090601f016020900481019282601f106100a857805160ff19168380011785556100d6565b828001600101855582156100d6579182015b828111156100d55782518255916020019190600101906100ba565b5b5090506100e391906100e7565b5090565b61010991905b808211156101055760008160009055506001016100ed565b5090565b90565b6106788061011b6000396000f3fe6080604052600436106100705760003560e01c806370a082311161004e57806370a0823114610147578063b69ef8a8146101ac578063d0e30db014610218578063f88af21d1461022257610070565b806306fdde031461007557806328657aa5146101055780633ccfd60b14610130575b600080fd5b34801561008157600080fd5b5061008a61029d565b6040518080602001828103825283818151815260200191508051906020019080838360005b838110156100ca5780820151818401526020810190506100af565b50505050905090810190601f1680156100f75780820380516001836020036101000a031916815260200191505b509250505060405180910390f35b34801561011157600080fd5b5061011a61033b565b6040518082815260200191505060405180910390f35b34801561013c57600080fd5b50610145610343565b005b34801561015357600080fd5b506101966004803603602081101561016a57600080fd5b81019080803573ffffffffffffffffffffffffffffffffffffffff16906020019092919050505061046b565b6040518082815260200191505060405180910390f35b3480156101b857600080fd5b506101c1610483565b6040518080602001828103825283818151815260200191508051906020019060200280838360005b838110156102045780820151818401526020810190506101e9565b505050509050019250505060405180910390f35b610220610511565b005b34801561022e57600080fd5b5061025b6004803603602081101561024557600080fd5b8101908080359060200190929190505050610607565b604051808273ffffffffffffffffffffffffffffffffffffffff1673ffffffffffffffffffffffffffffffffffffffff16815260200191505060405180910390f35b60008054600181600116156101000203166002900480601f0160208091040260200160405190810160405280929190818152602001828054600181600116156101000203166002900480156103335780601f1061030857610100808354040283529160200191610333565b820191906000526020600020905b81548152906001019060200180831161031657829003601f168201915b505050505081565b600047905090565b6000600590506000600180549050116103c4576040517f08c379a00000000000000000000000000000000000000000000000000000000081526004018080602001828103825260058152602001807f4572726f7200000000000000000000000000000000000000000000000000000081525060200191505060405180910390fd5b8060026000828254019250508190555080600360003373ffffffffffffffffffffffffffffffffffffffff1673ffffffffffffffffffffffffffffffffffffffff168152602001908152602001600020600082825401925050819055503373ffffffffffffffffffffffffffffffffffffffff166108fc479081150290604051600060405180830381858888f19350505050158015610467573d6000803e3d6000fd5b5050565b60036020528060005260406000206000915090505481565b6060600180548060200260200160405190810160405280929190818152602001828054801561050757602002820191906000526020600020905b8160009054906101000a900473ffffffffffffffffffffffffffffffffffffffff1673ffffffffffffffffffffffffffffffffffffffff16815260200190600101908083116104bd575b5050505050905090565b670de0b6b3a764000034101561058f576040517f08c379a00000000000000000000000000000000000000000000000000000000081526004018080602001828103825260178152602001807f4d696e69756d756e20616d6f756e74206e6f74206d657400000000000000000081525060200191505060405180910390fd5b60013390806001815401808255809150509060018203906000526020600020016000909192909190916101000a81548173ffffffffffffffffffffffffffffffffffffffff021916908373ffffffffffffffffffffffffffffffffffffffff1602179055505034600260008282540392505081905550565b6001818154811061061457fe5b906000526020600020016000915054906101000a900473ffffffffffffffffffffffffffffffffffffffff168156fea265627a7a723158207b4d831dd617c4a989c017897960fbc7202ae9975101b2be2efc8f8652d6421a64736f6c63430005100032",
  "source": "pragma solidity 0.5.16;\r\n\r\ncontract SolidityExam {\r\n    string public name = \"SolidityExam\";\r\n    address [] public clients;\r\n    uint256 bank = 0;\r\n\r\n    mapping(address => uint256) public balanceOf;\r\n\r\n    function deposit() public payable{\r\n        require(msg.value >= 1 ether, \"Miniumun amount not met\");\r\n        clients.push(msg.sender);\r\n        bank -= msg.value;\r\n    }\r\n\r\n    function withdraw() public {\r\n        uint256 _value = 5;\r\n        require(clients.length > 0, \"Error\");\r\n        bank += _value;\r\n        balanceOf[msg.sender] += _value;\r\n        msg.sender.transfer(address(this).balance);\r\n    }\r\n\r\n    function balance() public view returns (address [] memory) {\r\n        return clients;\r\n    }\r\n\r\n    function bankBalance() public view returns (uint256) {\r\n        return address(this).balance;\r\n    }\r\n    \r\n}\r\n",
  "sourcePath": "C:\\Users\\olivi\\Documents\\3IBCS1\\blockchain\\contracts\\solidityExam.sol",
  "compiler": {
    "name": "solc",
    "version": "0.5.16+commit.9c3226ce.Emscripten.clang"
  },
  "schemaVersion": "3.4.3",
  "updatedAt": "2021-12-01T16:01:44.908Z",
  "networkType": "ethereum",
  "devdoc": {
    "methods": {}
  },
  "userdoc": {
    "methods": {}
  }
}